{
  "contractName": "EnergyEscrow",
  "abi": [
    {
      "inputs": [
        {
          "internalType": "address",
          "name": "_verifier",
          "type": "address"
        }
      ],
      "stateMutability": "nonpayable",
      "type": "constructor"
    },
    {
      "anonymous": false,
      "inputs": [
        {
          "indexed": false,
          "internalType": "uint256",
          "name": "tradeId",
          "type": "uint256"
        }
      ],
      "name": "TradeConfirmed",
      "type": "event"
    },
    {
      "anonymous": false,
      "inputs": [
        {
          "indexed": false,
          "internalType": "uint256",
          "name": "tradeId",
          "type": "uint256"
        },
        {
          "indexed": false,
          "internalType": "address",
          "name": "buyer",
          "type": "address"
        },
        {
          "indexed": false,
          "internalType": "address",
          "name": "seller",
          "type": "address"
        },
        {
          "indexed": false,
          "internalType": "uint256",
          "name": "amount",
          "type": "uint256"
        }
      ],
      "name": "TradeCreated",
      "type": "event"
    },
    {
      "anonymous": false,
      "inputs": [
        {
          "indexed": false,
          "internalType": "uint256",
          "name": "tradeId",
          "type": "uint256"
        }
      ],
      "name": "TradeFailed",
      "type": "event"
    },
    {
      "inputs": [],
      "name": "tradeCounter",
      "outputs": [
        {
          "internalType": "uint256",
          "name": "",
          "type": "uint256"
        }
      ],
      "stateMutability": "view",
      "type": "function",
      "constant": true
    },
    {
      "inputs": [
        {
          "internalType": "uint256",
          "name": "",
          "type": "uint256"
        }
      ],
      "name": "trades",
      "outputs": [
        {
          "internalType": "address payable",
          "name": "buyer",
          "type": "address"
        },
        {
          "internalType": "address payable",
          "name": "seller",
          "type": "address"
        },
        {
          "internalType": "uint256",
          "name": "amount",
          "type": "uint256"
        },
        {
          "internalType": "enum EnergyEscrow.TradeStatus",
          "name": "status",
          "type": "uint8"
        }
      ],
      "stateMutability": "view",
      "type": "function",
      "constant": true
    },
    {
      "inputs": [],
      "name": "verifier",
      "outputs": [
        {
          "internalType": "address",
          "name": "",
          "type": "address"
        }
      ],
      "stateMutability": "view",
      "type": "function",
      "constant": true
    },
    {
      "inputs": [
        {
          "internalType": "address payable",
          "name": "_seller",
          "type": "address"
        }
      ],
      "name": "createTrade",
      "outputs": [],
      "stateMutability": "payable",
      "type": "function",
      "payable": true
    },
    {
      "inputs": [
        {
          "internalType": "uint256",
          "name": "_tradeId",
          "type": "uint256"
        }
      ],
      "name": "confirmEnergyTransfer",
      "outputs": [],
      "stateMutability": "nonpayable",
      "type": "function"
    },
    {
      "inputs": [
        {
          "internalType": "uint256",
          "name": "_tradeId",
          "type": "uint256"
        }
      ],
      "name": "failEnergyTransfer",
      "outputs": [],
      "stateMutability": "nonpayable",
      "type": "function"
    }
  ],
  "bytecode": "0x608060405234801561001057600080fd5b50604051610dd5380380610dd5833981810160405281019061003291906100dc565b80600260006101000a81548173ffffffffffffffffffffffffffffffffffffffff021916908373ffffffffffffffffffffffffffffffffffffffff16021790555050610109565b600080fd5b600073ffffffffffffffffffffffffffffffffffffffff82169050919050565b60006100a98261007e565b9050919050565b6100b98161009e565b81146100c457600080fd5b50565b6000815190506100d6816100b0565b92915050565b6000602082840312156100f2576100f1610079565b5b6000610100848285016100c7565b91505092915050565b610cbd806101186000396000f3fe6080604052600436106100555760003560e01c80631e6c598e1461005a5780632b7ac3f31461009a578063660d15b5146100c557806380a34dc6146100f05780639d43c260146101195780639e1e459614610135575b600080fd5b34801561006657600080fd5b50610081600480360381019061007c9190610808565b61015e565b60405161009194939291906108fc565b60405180910390f35b3480156100a657600080fd5b506100af6101db565b6040516100bc9190610962565b60405180910390f35b3480156100d157600080fd5b506100da610201565b6040516100e7919061097d565b60405180910390f35b3480156100fc57600080fd5b5061011760048036038101906101129190610808565b610207565b005b610133600480360381019061012e91906109c4565b6103fc565b005b34801561014157600080fd5b5061015c60048036038101906101579190610808565b6105d8565b005b60006020528060005260406000206000915090508060000160009054906101000a900473ffffffffffffffffffffffffffffffffffffffff16908060010160009054906101000a900473ffffffffffffffffffffffffffffffffffffffff16908060020154908060030160009054906101000a900460ff16905084565b600260009054906101000a900473ffffffffffffffffffffffffffffffffffffffff1681565b60015481565b600260009054906101000a900473ffffffffffffffffffffffffffffffffffffffff1673ffffffffffffffffffffffffffffffffffffffff163373ffffffffffffffffffffffffffffffffffffffff1614610297576040517f08c379a000000000000000000000000000000000000000000000000000000000815260040161028e90610a74565b60405180910390fd5b60008060008381526020019081526020016000209050600060028111156102c1576102c0610885565b5b8160030160009054906101000a900460ff1660028111156102e5576102e4610885565b5b14610325576040517f08c379a000000000000000000000000000000000000000000000000000000000815260040161031c90610ae0565b60405180910390fd5b60028160030160006101000a81548160ff0219169083600281111561034d5761034c610885565b5b02179055508060000160009054906101000a900473ffffffffffffffffffffffffffffffffffffffff1673ffffffffffffffffffffffffffffffffffffffff166108fc82600201549081150290604051600060405180830381858888f193505050501580156103c0573d6000803e3d6000fd5b507f7005668f4dd370a1d52af273d518c92710303a5d40cb604db0b7ee9c69bcc0b6826040516103f0919061097d565b60405180910390a15050565b6000341161043f576040517f08c379a000000000000000000000000000000000000000000000000000000000815260040161043690610b4c565b60405180910390fd5b60405180608001604052803373ffffffffffffffffffffffffffffffffffffffff1681526020018273ffffffffffffffffffffffffffffffffffffffff1681526020013481526020016000600281111561049c5761049b610885565b5b815250600080600154815260200190815260200160002060008201518160000160006101000a81548173ffffffffffffffffffffffffffffffffffffffff021916908373ffffffffffffffffffffffffffffffffffffffff16021790555060208201518160010160006101000a81548173ffffffffffffffffffffffffffffffffffffffff021916908373ffffffffffffffffffffffffffffffffffffffff1602179055506040820151816002015560608201518160030160006101000a81548160ff0219169083600281111561057657610575610885565b5b02179055509050507f7db1856a9087992b8c7c25a7f1622a9b144ff325953aee6bbb6d38d762c189f66001543383346040516105b59493929190610bcb565b60405180910390a1600160008154809291906105d090610c3f565b919050555050565b600260009054906101000a900473ffffffffffffffffffffffffffffffffffffffff1673ffffffffffffffffffffffffffffffffffffffff163373ffffffffffffffffffffffffffffffffffffffff1614610668576040517f08c379a000000000000000000000000000000000000000000000000000000000815260040161065f90610a74565b60405180910390fd5b600080600083815260200190815260200160002090506000600281111561069257610691610885565b5b8160030160009054906101000a900460ff1660028111156106b6576106b5610885565b5b146106f6576040517f08c379a00000000000000000000000000000000000000000000000000000000081526004016106ed90610ae0565b60405180910390fd5b60018160030160006101000a81548160ff0219169083600281111561071e5761071d610885565b5b02179055508060010160009054906101000a900473ffffffffffffffffffffffffffffffffffffffff1673ffffffffffffffffffffffffffffffffffffffff166108fc82600201549081150290604051600060405180830381858888f19350505050158015610791573d6000803e3d6000fd5b507f56ab764471b8940ceae99d18ee42f7ccef7190a57d284469b2321de29c6afa9b826040516107c1919061097d565b60405180910390a15050565b600080fd5b6000819050919050565b6107e5816107d2565b81146107f057600080fd5b50565b600081359050610802816107dc565b92915050565b60006020828403121561081e5761081d6107cd565b5b600061082c848285016107f3565b91505092915050565b600073ffffffffffffffffffffffffffffffffffffffff82169050919050565b600061086082610835565b9050919050565b61087081610855565b82525050565b61087f816107d2565b82525050565b7f4e487b7100000000000000000000000000000000000000000000000000000000600052602160045260246000fd5b600381106108c5576108c4610885565b5b50565b60008190506108d6826108b4565b919050565b60006108e6826108c8565b9050919050565b6108f6816108db565b82525050565b60006080820190506109116000830187610867565b61091e6020830186610867565b61092b6040830185610876565b61093860608301846108ed565b95945050505050565b600061094c82610835565b9050919050565b61095c81610941565b82525050565b60006020820190506109776000830184610953565b92915050565b60006020820190506109926000830184610876565b92915050565b6109a181610855565b81146109ac57600080fd5b50565b6000813590506109be81610998565b92915050565b6000602082840312156109da576109d96107cd565b5b60006109e8848285016109af565b91505092915050565b600082825260208201905092915050565b7f4f6e6c792076657269666965722063616e2063616c6c20746869732066756e6360008201527f74696f6e00000000000000000000000000000000000000000000000000000000602082015250565b6000610a5e6024836109f1565b9150610a6982610a02565b604082019050919050565b60006020820190508181036000830152610a8d81610a51565b9050919050565b7f5472616465206e6f7420696e2070656e64696e67207374617475730000000000600082015250565b6000610aca601b836109f1565b9150610ad582610a94565b602082019050919050565b60006020820190508181036000830152610af981610abd565b9050919050565b7f4d7573742073656e642066756e647320746f20657363726f7700000000000000600082015250565b6000610b366019836109f1565b9150610b4182610b00565b602082019050919050565b60006020820190508181036000830152610b6581610b29565b9050919050565b6000819050919050565b6000610b91610b8c610b8784610835565b610b6c565b610835565b9050919050565b6000610ba382610b76565b9050919050565b6000610bb582610b98565b9050919050565b610bc581610baa565b82525050565b6000608082019050610be06000830187610876565b610bed6020830186610953565b610bfa6040830185610bbc565b610c076060830184610876565b95945050505050565b7f4e487b7100000000000000000000000000000000000000000000000000000000600052601160045260246000fd5b6000610c4a826107d2565b91507fffffffffffffffffffffffffffffffffffffffffffffffffffffffffffffffff8203610c7c57610c7b610c10565b5b60018201905091905056fea264697066735822122082169dfb78da333ad0c3a5591a58a25b05a529695136a3d14808a6fc6af9c84b64736f6c634300080d0033",
  "immutableReferences": {},
  "source": "// SPDX-License-Identifier: MIT\npragma solidity ^0.8.0;\n\ncontract EnergyEscrow {\n    enum TradeStatus { Pending, Complete, Failed }\n    \n    struct Trade {\n        address payable buyer;\n        address payable seller;\n        uint amount;\n        TradeStatus status;\n    }\n\n    mapping(uint => Trade) public trades;\n    uint public tradeCounter;\n\n    address public verifier;\n\n    modifier onlyVerifier() {\n        require(msg.sender == verifier, \"Only verifier can call this function\");\n        _;\n    }\n\n    constructor(address _verifier) {\n        verifier = _verifier;\n    }\n\n    // Buyer creates a trade and deposits funds\n    event TradeCreated(uint tradeId, address buyer, address seller, uint amount);\nevent TradeConfirmed(uint tradeId);\nevent TradeFailed(uint tradeId);\n\nfunction createTrade(address payable _seller) external payable {\n    require(msg.value > 0, \"Must send funds to escrow\");\n\n    trades[tradeCounter] = Trade({\n        buyer: payable(msg.sender),\n        seller: _seller,\n        amount: msg.value,\n        status: TradeStatus.Pending\n    });\n\n    emit TradeCreated(tradeCounter, msg.sender, _seller, msg.value);\n\n    tradeCounter++;\n}\n\nfunction confirmEnergyTransfer(uint _tradeId) external onlyVerifier {\n    Trade storage trade = trades[_tradeId];\n    require(trade.status == TradeStatus.Pending, \"Trade not in pending status\");\n\n    trade.status = TradeStatus.Complete;\n\n    // Release funds to seller\n    trade.seller.transfer(trade.amount);\n    emit TradeConfirmed(_tradeId);\n}\n\nfunction failEnergyTransfer(uint _tradeId) external onlyVerifier {\n    Trade storage trade = trades[_tradeId];\n    require(trade.status == TradeStatus.Pending, \"Trade not in pending status\");\n\n    trade.status = TradeStatus.Failed;\n\n    // Refund funds to buyer\n    trade.buyer.transfer(trade.amount);\n    emit TradeFailed(_tradeId);\n}\n}",
  "sourcePath": "/Users/prithvirajawatade/Desktop/code/Energy-Trading-Platform/web3/contracts/EnergyEscrow.sol",
  "compiler": {
    "name": "solc",
    "version": "0.8.13+commit.abaa5c0e.Emscripten.clang"
  },
  "schemaVersion": "3.4.16",
  "updatedAt": "2024-09-29T12:18:57.024Z",
  "networkType": "ethereum",
  "devdoc": {
    "kind": "dev",
    "methods": {},
    "version": 1
  },
  "userdoc": {
    "kind": "user",
    "methods": {},
    "version": 1
  }
}